:1000000002308A00862A0000FF00030E8301A1004F
:100010000A08A0008A010408A2007708A300780853
:10002000A4007908A5007A08A600831383128B1D0B
:100030001B280B1832288C308400001C21280C1837
:100040003528220884002308F7002408F800250832
:10005000F9002608FA0020088A00210E8300FF0E0E
:100060007F0E09008A110A12B9298A110A124D2835
:100070004508F8014402031840284408F7004C28BA
:10008000F7010830C600C40DF70D450877020318C4
:10009000F700F80DC60B432808008E01FA308F00D8
:1000A0008E0100008316051083120510831685103B
:1000B000831285108316051183120511831685118D
:1000C000831285113608023C0319BF283A08FC3E0A
:1000D0000318BF28043EB1293708C4000A30C50000
:1000E000382028307807840083130008C400831662
:1000F00088018312440888008316051083120514B2
:10010000BF283708C4000A30C500382028307707D8
:10011000840083130008C4008316880183124408F6
:1001200088008316851083128514BF283808C40000
:100130000A30C5003820283078078400831300086F
:10014000C4008316880183124408880083160511B1
:1001500083120515BF283808C4000A30C5003820AE
:1001600028307707840083130008C40083168801B1
:100170008312440888008316851183128515BA0AF4
:100180003A08033C031CBA01B40A0319B50A35083E
:10019000C5003408C400C701C830C600F801F90121
:1001A000F701FA014708031DD82846080319F22869
:1001B0001030C8000310C40DC50DF70DFA0D470827
:1001C0007A02031DE52846087702031CEE2846083C
:1001D000F702031CFA034708FA020314F80DF90D9D
:1001E000C80BDA287708C4007A08C500C408031DC4
:1001F000FE28C508031DFE280230B9063508003C5C
:1002000003185D29FF3A031D092934088F3C0318A0
:100210005D29B501B40139143608023C03195D2982
:10022000B708031DB703B808031DB803B708031DBB
:100230003729B20A3208023C031CB201B208031D7E
:100240002829360B2529393026291430B7003729BB
:10025000320B3129360B2E2903302F290330B700FA
:100260003729360B35293C3036291730B700B80806
:10027000031D5D29B30A3308053C031841290330E7
:10028000B3003308033C031D4C29360B4929393090
:100290004A291430B8005D293308043C031D57294E
:1002A000360B5429033055290330B8005D29360B2D
:1002B0005B293C305C291730B80083160910831283
:1002C000091083168910831289108316091183126D
:1002D00009118316061083120610831686108312E6
:1002E000861083160611831206113608023C031D80
:1002F0008429B91C832983168910831289148316D3
:10030000861083128614AD29B208031D8C2983162A
:100310000910831209149729320B93298316891027
:10032000831289149729831609118312091533083A
:10033000033C031DA0298316061083120614AD2961
:100340003308043C031DA9298316861083128614E2
:10035000AD2983160611831206150C108A110A1294
:1003600021280A148A100A1182076C2881289628ED
:10037000AB28831686178312861BCA290430B90658
:100380003919CA29B601B2010530B3001430B700DB
:100390001730B8003919EE29831606168312061A8B
:1003A000D929B601B2010530B3001430B7001730B7
:1003B000B800831686168312861AE7290130B60024
:1003C000B2010530B3003930B7003C30B8008316B5
:1003D00006178312061BEE290230B600060800003D
:1003E0000B100B108A110A12212894138C113E084D
:1003F00093000230941B032A83161419FD29003040
:10040000111B01308312F800080014138316911594
:100410009119082A77189112771C91161116111A42
:100420000F2A83121308F80008003F0EF7000F3060
:10043000F7057708C1004108C2000A30C300F70180
:10044000F801420803104318F707F70CF80CC3181B
:10045000F707F70CF80C4319F707F70CF80CC3195A
:10046000F707F70CF80C431AF707F70CF80CC31A48
:10047000F707F70CF80C431BF707F70CF80CC31B36
:10048000F707F70CF80C7808C0003F080F39780719
:10049000F8000800A715270883168700831227167F
:1004A00027088316870011141118542AD03083129C
:1004B000BE00F521BE01F5218316911491185E2A24
:1004C000D1308312BE00F5210130F70005227808F3
:1004D000BE00BF0015227808BB000130F7000522DE
:1004E0007808BE00BF0015227808BC00F70105227D
:1004F0007808BE00BF0015227808BD0083161115CC
:100500001119802A83128A110A12FF2A03081F393F
:100510008300FF30A700A7152708831687008312E2
:1005200027162708831687000C3093002830831283
:1005300094008316941314138312B201B301B5010E
:10054000B401B601B701B8013910B910BA013915B3
:1005500083161F149F141F159F1107309C008313CF
:10056000C0308312A800F930A900A430AA00B0302E
:10057000AB009930AC009230AD008230AE00F83064
:10058000AF008030B0009030B10083161F149F146C
:100590001F159F1100308500F03086000030880064
:1005A00009108910091185018312850183168801BC
:1005B0008312880183160910891009118312890199
:1005C0008316860183128601B601B2010530B3009D
:1005D0001430B7001730B800B53090008E01FA30F3
:1005E0008F008E01000083160C1483128B15C0300F
:1005F0008B04391C362B3910391D362B4A2A3D08FD
:10060000053C0318072B3D08073C03180F2B3D083A
:100610000F3C03181C2B3D08113C031C1C2B360BF4
:10062000122B1B2B0130B600B2010530B30039305C
:10063000B7003C30B800362B3D08153C031C242B7A
:100640003D08043C031C2B2B3608023C03192A2BC3
:100650000230B600362BB6080319362BB601B201AC
:100660000530B3001430B7001730B800F92A630022
:02400E00723FFF
:00000001FF
;PIC16F877A
;CRC=4432  CREATED="23-Dec-25 21:26"
