:1000000002308A00C32A0000FF00030E8301A10012
:100010000A08A0008A010408A2007708A300780853
:10002000A4007908A5007A08A600831383128C30F7
:100030008400001C1D280C182E2822088400230888
:10004000F7002408F8002508F9002608FA0020081F
:100050008A00210E8300FF0E7F0E09008A110A120A
:1000600046284508F8014402031839284408F700D7
:100070004528F7010830C600C40DF70D4508770282
:100080000318F700F80DC60B3C2808008E01FA3063
:100090008F008E0100008316051083120510831651
:1000A000851083128510831605118312051183169E
:1000B0008511831285113608023C0319B8283A08C5
:1000C000FC3E0318B828043EAA293708C4000A30A9
:1000D000C500312028307807840083130008C4004D
:1000E0008316880183124408880083160510831242
:1000F0000514B8283708C4000A30C500312028305C
:100100007707840083130008C400831688018312D4
:10011000440888008316851083128514B82838088F
:10012000C4000A30C50031202830780784008313CA
:100130000008C400831688018312440888008316CF
:10014000051183120515B8283808C4000A30C50007
:10015000312028307707840083130008C4008316F9
:10016000880183124408880083168511831285153F
:10017000BA0A3A08033C031CBA01B40A0319B50AC7
:100180003508C5003408C400C701C830C600F801EE
:10019000F901F701FA014708031DD12846080319A0
:1001A000EB281030C8000310C40DC50DF70DFA0D73
:1001B00047087A02031DDE2846087702031CE72859
:1001C0004608F702031CFA034708FA020314F80D65
:1001D000F90DC80BD3287708C4007A08C500C408F5
:1001E000031DF728C508031DF7280230B906350896
:1001F000003C03185629FF3A031D022934088F3C9E
:1002000003185629B501B40139143608023C031904
:100210005629B708031DB703B808031DB803B7086C
:10022000031D3029B20A3208023C031CB201B20895
:10023000031D2129360B1E2939301F291430B70020
:100240003029320B2A29360B27290330282903307D
:10025000B7003029360B2E293C302F291730B70034
:10026000B808031D5629B30A3308053C03183A2978
:100270000330B3003308033C031D4529360B4229E4
:10028000393043291430B80056293308043C031D83
:100290005029360B4D2903304E290330B80056291A
:1002A000360B54293C3055291730B80083160910F5
:1002B000831209108316891083128910831609117D
:1002C00083120911831606108312061083168610F6
:1002D0008312861083160611831206113608023C1B
:1002E000031D7D29B91C7C2983168910831289146A
:1002F0008316861083128614A629B208031D852949
:1003000083160910831209149029320B8C29831645
:1003100089108312891490298316091183120915F3
:100320003308033C031D9929831606108312061413
:10033000A6293308043C031DA229831686108312C4
:100340008614A62983160611831206150C108A112D
:100350000A121D280A148A100A11820765287A28B1
:100360008F28A4283E308400831300080319C52970
:100370000630F800F701F70BBB29F80BBA297B30E0
:10038000F700F70BC129800BB829080083168617E0
:100390008312861BE4291430BE00B221831686170F
:1003A0008312861BE4290430B9063919DF29B60106
:1003B000B2010530B3001430B7001730B80083160F
:1003C00086178312861FDF2939192F2A83160616EE
:1003D0008312061A002A1430BE00B22183160616B4
:1003E0008312061A002AB601B2010530B300143098
:1003F000B7001730B800831606168312061EFB29B5
:10040000831686168312861A1B2A1430BE00B22168
:10041000831686168312861A1B2A0130B600B20193
:100420000530B3003930B7003C30B800831686166B
:100430008312861E162A831606178312061B2F2A7E
:100440001430BE00B221831606178312061B2F2A12
:100450000230B600831606178312061F2A2A8A1155
:100460000A12372B94138C113E0893000230941B10
:10047000402A831614193A2A0030111B01308312C6
:10048000F80008001413831691159119452A77185E
:100490009112771C91161116111A4C2A8312130807
:1004A000F80008003F0EF7000F30F7057708C1008D
:1004B0004108C2000A30C300F701F80142080310E6
:1004C0004318F707F70CF80CC318F707F70CF80CEC
:1004D0004319F707F70CF80CC319F707F70CF80CDA
:1004E000431AF707F70CF80CC31AF707F70CF80CC8
:1004F000431BF707F70CF80CC31BF707F70CF80CB6
:100500007808C0003F080F397807F8000800A715E1
:10051000270883168700831227162708831687006B
:1005200011141118912AD0308312BE003222BE015C
:1005300032228316911491189B2AD1308312BE0067
:1005400032220130F70042227808BE00BF0052225A
:100550007808BB000130F70042227808BE00BF00D7
:1005600052227808BC00F70142227808BE00BF0082
:1005700052227808BD00831611151119BD2A831265
:100580008A110A123D2B03081F398300FF30A70090
:10059000A7152708831687008312271627088316B6
:1005A00087000C3093002830831294008316941334
:1005B00014138312B201B301B501B401B601B7013E
:1005C000B8013910B910BA01391583161F149F14D8
:1005D0001F159F1107309C008313C0308312A800A1
:1005E000F930A900A430AA00B030AB009930AC00BB
:1005F0009230AD008230AE00F830AF008030B000F5
:100600009030B10083161F149F141F159F110030E6
:100610008500F0308600003088000910891009112B
:100620008113850183128501831688018312880155
:100630008316091089100911831289018316860116
:1006400083128601B601B2010530B3001430B70041
:100650001730B800B53090008E01FA308F008E014F
:10066000000083160C14C03083128B04C629391C79
:10067000742B3910391D742B872A3D08053C03184B
:10068000452B3D08073C03184D2B3D080F3C031834
:100690005A2B3D08113C031C5A2B360B502B592B5F
:1006A0000130B600B2010530B3003930B7003C303C
:1006B000B800742B3D08153C031C622B3D08043C1C
:1006C000031C692B3608023C0319682B0230B60064
:1006D000742BB6080319742BB601B2010530B300B0
:0C06E0001430B7001730B800362B630050
:02400E00723FFF
:00000001FF
;PIC16F877A
;CRC=BDC9  CREATED="25-Dec-25 12:36"
